{
  "_format": "hh-sol-artifact-1",
  "contractName": "Web3HuntContentManager",
  "sourceName": "contracts/Web3HuntContentManager.sol",
  "abi": [
    {
      "anonymous": false,
      "inputs": [
        {
          "indexed": false,
          "internalType": "address",
          "name": "author",
          "type": "address"
        },
        {
          "indexed": false,
          "internalType": "bytes",
          "name": "data",
          "type": "bytes"
        }
      ],
      "name": "StateChange",
      "type": "event"
    },
    {
      "inputs": [
        {
          "internalType": "bytes[]",
          "name": "data_",
          "type": "bytes[]"
        }
      ],
      "name": "stateChange",
      "outputs": [],
      "stateMutability": "nonpayable",
      "type": "function"
    }
  ],
  "bytecode": "0x608060405234801561001057600080fd5b506103b6806100206000396000f3fe608060405234801561001057600080fd5b506004361061002b5760003560e01c80633ec5c90914610030575b600080fd5b61004a6004803603810190610045919061013f565b61004c565b005b60005b828290508110156100cb577f6d6116a1c6efe012563afc71498d1d3bba28c1917c6ab0e3f24906942c22b3da3384848481811061008f5761008e61018c565b5b90506020028101906100a191906101ca565b6040516100b0939291906102cc565b60405180910390a180806100c390610337565b91505061004f565b505050565b600080fd5b600080fd5b600080fd5b600080fd5b600080fd5b60008083601f8401126100ff576100fe6100da565b5b8235905067ffffffffffffffff81111561011c5761011b6100df565b5b602083019150836020820283011115610138576101376100e4565b5b9250929050565b60008060208385031215610156576101556100d0565b5b600083013567ffffffffffffffff811115610174576101736100d5565b5b610180858286016100e9565b92509250509250929050565b7f4e487b7100000000000000000000000000000000000000000000000000000000600052603260045260246000fd5b600080fd5b600080fd5b600080fd5b600080833560016020038436030381126101e7576101e66101bb565b5b80840192508235915067ffffffffffffffff821115610209576102086101c0565b5b602083019250600182023603831315610225576102246101c5565b5b509250929050565b600073ffffffffffffffffffffffffffffffffffffffff82169050919050565b60006102588261022d565b9050919050565b6102688161024d565b82525050565b600082825260208201905092915050565b82818337600083830152505050565b6000601f19601f8301169050919050565b60006102ab838561026e565b93506102b883858461027f565b6102c18361028e565b840190509392505050565b60006040820190506102e1600083018661025f565b81810360208301526102f481848661029f565b9050949350505050565b7f4e487b7100000000000000000000000000000000000000000000000000000000600052601160045260246000fd5b6000819050919050565b60006103428261032d565b91507fffffffffffffffffffffffffffffffffffffffffffffffffffffffffffffffff821415610375576103746102fe565b5b60018201905091905056fea2646970667358221220b993bd42b00fae8e2010795d2aaa542ac7a9c6186444690505f4225c40a04e2b64736f6c634300080b0033",
  "linkReferences": {},
  "deployedLinkReferences": {}
}